:06001C00C180410000005C
:100A4100120003120026D2AF12077820FBFA750CB0
:100A510000750D327B177A007D037F01120D197D20
:100A6100087C00120D97C2EE3002FDD2EE7B017AB6
:100A710001792D12095E782C7C027D017E007F05B3
:100A81001206EAE4FF1200397F011200397F1712C2
:100A9100003990022CE0240AF50EE433F50D9002A2
:100AA1002EE0FBA3E0FAA3E08B0F8A10F5117B0384
:100AB1007AFFE4FD7F607EFF12086B90022CE02438
:100AC1000AFDE433FC120D5EC2EF30FBFDD2EFC232
:090AD10002E4900000F0020A4961
:03002300020B6667
:100B6600C0E0C083C082C0D075D000C004C005C03C
:030B760006C007AF
:100B790030985DC298E599B47E0B30000875240061
:100B8900752500C20074012525F58274003524F508
:100B990083E599F0E525640745247018900007E07E
:100BA900FF3395E0EFFEA3E0FD3395E0FCEE4CF555
:100BB90021EDF522E52224FFFFE52134FFFEEFB503
:100BC9002506EEB52402D2010525E5257002052486
:100BD900D007D006D005D004D0D0D082D083D0E0C1
:010BE90032D9
:03004300020C6844
:0F0C6800C0E0C083C082C0D075D000C006C007F6
:100C7700E59A30E039539AFE900000E0FF242DF505
:100C870082E43401F583E59BF0EFB4020690012F6F
:100C9700E0F523E5232404FFE433FE900000E0B5EC
:0E0CA7000706E4B50602D202900000E004F059
:0D0CB500D007D006D0D0D082D083D0E0325E
:0E0DD00000007F5C7E327DEEDDFEDEFCDFFA91
:010DDE0022F2
:1007780020010302086A7B017A0079011204467895
:10078800267C007D007E007F0B1206EAE526F460D9
:1007980003020834B2E8E52B64207003E52AF4600C
:1007A80003020866B2E9F50C750D197B17FA7D038B
:1007B8007F01120D197D087C00120D97C2EE3002E0
:1007C800FDD2EE7B017A01792D12095E782C7C022C
:1007D8007D017E007F051206EAE4FF1200397F01E1
:1007E8001200397F1712003990022CE0240AF50E06
:1007F800E433F50D90022EE0FBA3E0FAA3E08B0FA3
:100808008A10F5117B037AFFE4FD7F607EFF1208F2
:100818006B90022CE0240AFDE433FC120D5E308755
:10082800FDC202E4900000F0B2EB8032B2EFE526A0
:10083800B40207C2EA120DD0D2EAE526B40307C211
:10084800EB120DD0D2EBE526B40407C2EC120DD0A2
:10085800D2ECE526B40607C2ED120DD0D2EDD200D7
:03086800C20122A8
:1000460000C1814001C0804101C0804100C18140A2
:1000560001C0804100C1814000C1814001C0804192
:1000660001C0804100C1814000C1814001C0804182
:1000760000C1814001C0804101C0804100C1814072
:1000860001C0804100C1814000C1814001C0804162
:1000960000C1814001C0804101C0804100C1814052
:1000A60000C1814001C0804101C0804100C1814042
:1000B60001C0804100C1814000C1814001C0804132
:1000C60001C0804100C1814000C1814001C0804122
:1000D60000C1814001C0804101C0804100C1814012
:1000E60000C1814001C0804101C0804100C1814002
:1000F60001C0804100C1814000C1814001C08041F2
:1001060000C1814001C0804101C0804100C18140E1
:1001160001C0804100C1814000C1814001C08041D1
:1001260001C0804100C1814000C1814001C08041C1
:1001360000C1814001C0804101C0804100C18140B1
:1001460000C0C101C30302C2C60607C705C5C40471
:10015600CC0C0DCD0FCFCE0E0ACACB0BC90908C8E1
:10016600D81819D91BDBDA1A1EDEDF1FDD1D1CDCD1
:1001760014D4D515D71716D6D21213D311D1D01041
:10018600F03031F133F3F23236F6F737F53534F431
:100196003CFCFD3DFF3F3EFEFA3A3BFB39F9F838A1
:1001A60028E8E929EB2B2AEAEE2E2FEF2DEDEC2C91
:1001B600E42425E527E7E62622E2E323E12120E001
:1001C600A06061A163A3A26266A6A767A56564A4F1
:1001D6006CACAD6DAF6F6EAEAA6A6BAB69A9A86861
:1001E60078B8B979BB7B7ABABE7E7FBF7DBDBC7C51
:1001F600B47475B577B7B67672B2B373B17170B0C1
:1002060050909151935352929656579755959454B0
:100216009C5C5D9D5F9F9E5E5A9A9B5B9959589820
:10022600884849894B8B8A4A4E8E8F4F8D4D4C8C10
:100236004484854587474686824243834181804080
:0A0CC2008B128A1389148C158D160D
:100CCC007FFF7EFFE5161516AC15700215154C60EE
:100CDC0031AB120514E514AA137002051314F912A2
:100CEC0007106FFD7C002446F582EC3400F583E49C
:100CFC00936EFF74462DF582EC3401F583E493FE7C
:0C0D0C0080C28F178E187B007A007917C8
:010D180022B8
:100D1900900231EFF0A3EDF0EAFFA3EFF0A3EBF0BF
:100D2900E50CFFA3EFF0A3E50DF07B017A02793121
:100D39007D067C00120CC2780E7C007D007E007F4F
:100D4900021206EA900237E50EF0A3E50FF07B01E7
:040D59007A02793170
:010D5D002273
:06095E008B088A09890ADA
:10096400E4FFFE900002120729F50BD3EF950B74F8
:1009740080F86E98501374A02FF58274043EF583AA
:10098400E4F00FBF00010E80E2E4FEFFC3EF950B1D
:100994007480F86E985024AB08AA09A90A8F828E35
:1009A40083A3A3A3120729FD74A02FF58274043E28
:1009B400F583EDF00FBF00010E80D1750D01750EAA
:1009C40004750FA0AB08AA09A90AE50B2403FDE4EA
:1009D40033FC120CC278107C007D007E007F021272
:1009E40006EAE4FEFFD3EF950B7480F86E98501579
:1009F400AB08AA09A90A8F828E83E41207560FBF97
:100A040000010E80E0AF0B74042FF582E433F5830C
:100A1400AB08AA09A90A120729B5101774052FF5FE
:100A240082E433F583120729B51108B2EAE4F50C20
:0C0A3400FB8005750C017B007A00790B3B
:010A40002293
:1002460000C1814001C0804101C0804100C18140A0
:1002560001C0804100C1814000C1814001C0804190
:1002660001C0804100C1814000C1814001C0804180
:1002760000C1814001C0804101C0804100C1814070
:1002860001C0804100C1814000C1814001C0804160
:1002960000C1814001C0804101C0804100C1814050
:1002A60000C1814001C0804101C0804100C1814040
:1002B60001C0804100C1814000C1814001C0804130
:1002C60001C0804100C1814000C1814001C0804120
:1002D60000C1814001C0804101C0804100C1814010
:1002E60000C1814001C0804101C0804100C1814000
:1002F60001C0804100C1814000C1814001C08041F0
:1003060000C1814001C0804101C0804100C18140DF
:1003160001C0804100C1814000C1814001C08041CF
:1003260001C0804100C1814000C1814001C08041BF
:1003360000C1814001C0804101C0804100C18140AF
:1003460000C0C101C30302C2C60607C705C5C4046F
:10035600CC0C0DCD0FCFCE0E0ACACB0BC90908C8DF
:10036600D81819D91BDBDA1A1EDEDF1FDD1D1CDCCF
:1003760014D4D515D71716D6D21213D311D1D0103F
:10038600F03031F133F3F23236F6F737F53534F42F
:100396003CFCFD3DFF3F3EFEFA3A3BFB39F9F8389F
:1003A60028E8E929EB2B2AEAEE2E2FEF2DEDEC2C8F
:1003B600E42425E527E7E62622E2E323E12120E0FF
:1003C600A06061A163A3A26266A6A767A56564A4EF
:1003D6006CACAD6DAF6F6EAEAA6A6BAB69A9A8685F
:1003E60078B8B979BB7B7ABABE7E7FBF7DBDBC7C4F
:1003F600B47475B577B7B67672B2B373B17170B0BF
:1004060050909151935352929656579755959454AE
:100416009C5C5D9D5F9F9E5E5A9A9B5B995958981E
:10042600884849894B8B8A4A4E8E8F4F8D4D4C8C0E
:10043600448485458747468682424383418180407E
:060BEA008B128A1389142E
:100BF00090037074FFF0A3F0ED1DAE0470011C4E65
:100C0000604FAB120514E514AA137002051314F912
:100C1000120710FF900370E06FFF900372E4F0A3DF
:100C2000EFF0900372E0FAA3E0FB2446F582740231
:100C30003AF583E493FF900371E06F900370F074D2
:100C4000462BF58274033AF583E493900371F080A8
:100C5000A7900370E090036EF0900371E090036F33
:070C6000F07B017A03796EBD
:010C6700226A
:04086B008E088F095B
:10086F00E4900231F0A3F0900374747EF0E508A3D6
:10087F00F0A3EFF0A3EDF0A3EAF0A3EBF0E50DA3E7
:10088F00F0A3E50EF0E4900231F0A3F0C390023232
:10089F00E0950E900231E0950D501E7474250EF503
:1008AF00827403350DF583E4F0900232E004F070AA
:1008BF00DB900231E004F080D3E4900231F0A3F03A
:1008CF00E50E24F6FFE50D34FFFE900231E0FCA3A8
:1008DF00E0FDC39FEC9E502AAB0FAA10A9118D8289
:1008EF008C83120729FF747C2DF58274033CF583EA
:1008FF00EFF0900232E004F070C6900231E004F0A5
:10090F0080BE7B017A037974E50E24FEFDE50D347C
:10091F00FFFC120BEA78337C027D017E007F02120E
:10092F0006EA900233E0FF7472250EF582740335E8
:10093F000DF583EFF0900234E0FF7473250EF5820E
:0E094F007403350DF583EFF07B017A037974A4
:01095D002277
:060446008B088A09890AF7
:10044C00120710900240F0900001120729FFEFFEF6
:10045C00900002120729FD3395E04EFFED90023219
:10046C00CFF0A3EFF0900003120729900234F09024
:10047C000004120729FFEFFE900005120729FD3337
:10048C0095E04EFFED900235CFF0A3EFF090000613
:10049C00120729FFEFFE900007120729FD3395E0A4
:1004AC004EFFED900237CFF0A3EFF0E4900241F055
:1004BC00900238E024F6FF900237E034FFFE900201
:1004CC0041E07C00D39FEC9E5028E0FF2408F5828D
:1004DC00E433F583AB08AA09A90A120729FE744272
:1004EC002FF582E43402F583EEF0900241E004F043
:1004FC0080BE9002397401F0A37402F0A37442F030
:10050C00AB08AA09A90A900238E024FEFD90023734
:10051C00E034FFFC8D82F58312072990023FF090A6
:10052C000238E024FFFF900237E034FF8F82F5831E
:10053C0012072990023EF0120BEA783C7C027D01F6
:10054C007E007F021206EAE4900241F0900241E044
:10055C00FF900237E0FCA3E0FDC39FEC9400401B2E
:10056C00AB08AA09A90A900241E0F582758300E460
:10057C00120756900241E004F080D1900240E064F2
:10058C007E60099002317401F0FB807D900232E0B4
:10059C00F47004A3E06460600A9002317402F07B92
:1005AC00018066900234E0600A9002317403F07BA3
:1005BC00018056D3ED942CEC940140047F01800211
:1005CC007F00C3ED940AEC940050047E0180027EFF
:1005DC0000EE4F600A9002317404F07B01802A9087
:1005EC00023FE0FF90023CE0B5071690023EE0FFB0
:1005FC0090023DE0B5070A90023174FFF07B018058
:0D060C00089002317406F07B017A0279310A
:0106190022BE
:10000300759850438E40538EFE53890F758BCC7574
:090013008DFFC2ABD28ED2AC22EB
:10002600439A50438E0475D78F75D6FD438E9443FD
:03003600AF0122F5
:080039008F993099FDC2992254
:0A0D5E008B088A09890A8C0B8D0CA2
:100D6800E4FDFCC3ED950CE50B6480F8EC64809819
:100D7800501CAB08050AE50AAA097002050914F90E
:0E0D8800120710FF1200390DBD00010C80D5BE
:010D9600223A
:0B0DDF008F9BE59A30E1FB539AFD2248
:0A0D97008B088A09890A8C0B8D0C69
:100DA100E4FDFCC3ED950CE50B6480F8EC648098E0
:100DB100501CAB08050AE50AAA097002050914F9D5
:0E0DC100120710FF120DDF0DBD00010C80D5D2
:010DCF002201
:03000000020ADA17
:0C0ADA00787FE4F6D8FD758130020B2116
:10061A00E709F608DFFA8046E709F208DFFA803EC2
:10062A0088828C83E709F0A3DFFA8032E309F608AF
:10063A00DFFA8078E309F208DFFA807088828C8317
:10064A00E309F0A3DFFA806489828A83E0A3F608CB
:10065A00DFFA805889828A83E0A3F208DFFA804CA5
:10066A0080D280FA80C680D4806980F2803380107C
:10067A0080A680EA809A80A880DA80E280CA8033E5
:10068A0089828A83ECFAE493A3C8C582C8CCC5835D
:10069A00CCF0A3C8C582C8CCC583CCDFE9DEE7802D
:1006AA000D89828A83E493A3F608DFF9ECFAA9F0AC
:1006BA00EDFB2289828A83ECFAE0A3C8C582C8CC02
:1006CA00C583CCF0A3C8C582C8CCC583CCDFEADE1B
:1006DA00E880DB89828A83E493A3F208DFF980CC7D
:1006EA0088F0EF60010E4E60C388F0ED2402B40476
:1006FA000050B9F582EB2402B4040050AF2323451D
:06070A00822390066A73D1
:10071000BB010689828A83E0225002E722BBFE02E7
:09072000E32289828A83E493221A
:10072900BB010CE58229F582E5833AF583E0225085
:1007390006E92582F8E622BBFE06E92582F8E222CF
:0D074900E58229F582E5833AF583E49322E9
:10075600F8BB010DE58229F582E5833AF583E8F0D9
:10076600225006E92582C8F622BBFE05E92582C885
:02077600F2226D
:100AE600020A41E493A3F8E493A34003F68001F2DB
:100AF60008DFF48029E493A3F85407240CC8C33311
:100B0600C4540F4420C8834004F456800146F6DFDF
:100B1600E4800B010204081020408090001CE47E53
:100B2600019360BCA3FF543F30E509541FFEE493D4
:100B3600A360010ECF54C025E060A840B8E493A39B
:100B4600FAE493A3F8E493A3C8C582C8CAC583CAC6
:100B5600F0A3C8C582C8CAC583CADFE9DEE780BE7E
:0100220000DD
:00000001FF
