:100C3E0051776572747975696F705B6173646667FD
:100C4E00686A6B6C3B7A786376626E6D2C2E717768
:100C5E006572747975696F706173646667686A6BC3
:100C6E0051776572747975696F705B6173646667CD
:100C7E00686A6B6C3B7A786376626E6D2C2E717738
:100C8E006572747975696F706173646667686A6B93
:0F0C9E003435333436353334353433363336006A
:06001C00C180410000005C
:0E0E150000007F5C7E327DEEDDFEDEFCDFFA4B
:010E230022AC
:10061A00120003120026D2AF2001030207147B0145
:10062A007A007901120446780D7C007D007E007FF5
:10063A000B12084CE50DF460030206DEB2E8E5127F
:10064A0064207003E511F46003020710B2E9F5258E
:10065A007526197B17FA7D037F01120D5E7D087CD2
:10066A0000120DDCC2EE3002FDD2EE7B017A017976
:10067A002D1209CD782C7C027D017E007F0512089F
:10068A004CE4FF1200397F011200397F171200393A
:10069A0090022CE0240AF527E433F52690022EE096
:1006AA00FBA3E0FAA3E08B288A29F52A7B037AFFC9
:1006BA00E4FD7F607EFF1208DA90022CE0240AFD36
:1006CA00E433FC120DA32087FDC202E4900000F07F
:1006DA00B2EB8032B2EFE50DB40207C2EA120E1590
:1006EA00D2EAE50DB40307C2EB120E15D2EBE50D03
:1006FA00B40407C2EC120E15D2ECE50DB40607C21B
:10070A00ED120E15D2EDD200C20130FB0302062211
:10071A007525007526327B177A007D037F01120D3D
:10072A005E7D087C00120DDCC2EE3002FDD2EE7B4B
:10073A00017A01792D1209CD782C7C027D017E0087
:10074A007F0512084CE4FF1200397F011200397F3D
:10075A00171200397BFF7A0C793E7D6E7C00120DF0
:10076A00A3C2EF30FBFDD2EFC202E4900000F00218
:02077A00062255
:03002300020B3C91
:100B3C00C0E0C083C082C0D075D000C004C005C066
:030B4C0006C007D9
:100B4F0030985DC298E599B47E0B300008750B00A4
:100B5F00750C00C2007401250CF5827400350BF57D
:100B6F0083E599F0E50C6407450B7018900007E0DA
:100B7F00FF3395E0EFFEA3E0FD3395E0FCEE4CF57F
:100B8F0008EDF509E50924FFFFE50834FFFEEFB591
:100B9F000C06EEB50B02D201050CE50C7002050B2D
:100BAF00D007D006D005D004D0D0D082D083D0E0EB
:010BBF003203
:03004300020CADFF
:0F0CAD00C0E0C083C082C0D075D000C006C007B1
:100CBC00E59A30E039539AFE900000E0FF242DF5C0
:100CCC0082E43401F583E59BF0EFB4020690012F2A
:100CDC00E0F50AE50A2404FFE433FE900000E0B5D9
:0E0CEC000706E4B50602D202900000E004F014
:0D0CFA00D007D006D0D0D082D083D0E03219
:1000460000C1814001C0804101C0804100C18140A2
:1000560001C0804100C1814000C1814001C0804192
:1000660001C0804100C1814000C1814001C0804182
:1000760000C1814001C0804101C0804100C1814072
:1000860001C0804100C1814000C1814001C0804162
:1000960000C1814001C0804101C0804100C1814052
:1000A60000C1814001C0804101C0804100C1814042
:1000B60001C0804100C1814000C1814001C0804132
:1000C60001C0804100C1814000C1814001C0804122
:1000D60000C1814001C0804101C0804100C1814012
:1000E60000C1814001C0804101C0804100C1814002
:1000F60001C0804100C1814000C1814001C08041F2
:1001060000C1814001C0804101C0804100C18140E1
:1001160001C0804100C1814000C1814001C08041D1
:1001260001C0804100C1814000C1814001C08041C1
:1001360000C1814001C0804101C0804100C18140B1
:1001460000C0C101C30302C2C60607C705C5C40471
:10015600CC0C0DCD0FCFCE0E0ACACB0BC90908C8E1
:10016600D81819D91BDBDA1A1EDEDF1FDD1D1CDCD1
:1001760014D4D515D71716D6D21213D311D1D01041
:10018600F03031F133F3F23236F6F737F53534F431
:100196003CFCFD3DFF3F3EFEFA3A3BFB39F9F838A1
:1001A60028E8E929EB2B2AEAEE2E2FEF2DEDEC2C91
:1001B600E42425E527E7E62622E2E323E12120E001
:1001C600A06061A163A3A26266A6A767A56564A4F1
:1001D6006CACAD6DAF6F6EAEAA6A6BAB69A9A86861
:1001E60078B8B979BB7B7ABABE7E7FBF7DBDBC7C51
:1001F600B47475B577B7B67672B2B373B17170B0C1
:1002060050909151935352929656579755959454B0
:100216009C5C5D9D5F9F9E5E5A9A9B5B9959589820
:10022600884849894B8B8A4A4E8E8F4F8D4D4C8C10
:100236004484854587474686824243834181804080
:0A0D07008B2B8A2C892D8C2E8D2F4A
:100D11007FFF7EFFE52F152FAC2E7002152E4C6044
:100D210031AB2B052DE52DAA2C7002052C14F912DF
:100D310008726FFD7C002446F582EC3400F583E4F3
:100D4100936EFF74462DF582EC3401F583E493FE36
:0C0D510080C28F308E317B007A00793038
:010D5D002273
:100D5E00900231EFF0A3EDF0EAFFA3EFF0A3EBF07A
:100D6E00E525FFA3EFF0A3E526F07B017A027931AA
:100D7E007D067C00120D0778277C007D007E007FAB
:100D8E000212084C900237E527F0A3E528F07B010C
:040D9E007A0279312B
:010DA200222E
:0609CD008B218A22892320
:1009D300E4FFFE90000212088BF524D3EF952474F4
:1009E30080F86E98501374A02FF58274043EF5833B
:1009F300E4F00FBF00010E80E2E4FEFFC3EF952495
:100A03007480F86E985024AB21AA22A9238F828E7A
:100A130083A3A3A312088BFD74A02FF58274043E55
:100A2300F583EDF00FBF00010E80D1752601752708
:100A3300047528A0AB21AA22A923E5242403FDE4FD
:100A430033FC120D0778297C007D007E007F0212A3
:100A5300084CE4FEFFD3EF95247480F86E9850158C
:100A6300AB21AA22A9238F828E83E41208B80FBF79
:100A730000010E80E0AF2474042FF582E433F58384
:100A8300AB21AA22A92312088BB5291774052FF5C8
:100A930082E433F58312088BB52A08B2EAE4F5251C
:0C0AA300FB80057525017B007A0079249A
:010AAF002224
:1002460000C1814001C0804101C0804100C18140A0
:1002560001C0804100C1814000C1814001C0804190
:1002660001C0804100C1814000C1814001C0804180
:1002760000C1814001C0804101C0804100C1814070
:1002860001C0804100C1814000C1814001C0804160
:1002960000C1814001C0804101C0804100C1814050
:1002A60000C1814001C0804101C0804100C1814040
:1002B60001C0804100C1814000C1814001C0804130
:1002C60001C0804100C1814000C1814001C0804120
:1002D60000C1814001C0804101C0804100C1814010
:1002E60000C1814001C0804101C0804100C1814000
:1002F60001C0804100C1814000C1814001C08041F0
:1003060000C1814001C0804101C0804100C18140DF
:1003160001C0804100C1814000C1814001C08041CF
:1003260001C0804100C1814000C1814001C08041BF
:1003360000C1814001C0804101C0804100C18140AF
:1003460000C0C101C30302C2C60607C705C5C4046F
:10035600CC0C0DCD0FCFCE0E0ACACB0BC90908C8DF
:10036600D81819D91BDBDA1A1EDEDF1FDD1D1CDCCF
:1003760014D4D515D71716D6D21213D311D1D0103F
:10038600F03031F133F3F23236F6F737F53534F42F
:100396003CFCFD3DFF3F3EFEFA3A3BFB39F9F8389F
:1003A60028E8E929EB2B2AEAEE2E2FEF2DEDEC2C8F
:1003B600E42425E527E7E62622E2E323E12120E0FF
:1003C600A06061A163A3A26266A6A767A56564A4EF
:1003D6006CACAD6DAF6F6EAEAA6A6BAB69A9A8685F
:1003E60078B8B979BB7B7ABABE7E7FBF7DBDBC7C4F
:1003F600B47475B577B7B67672B2B373B17170B0BF
:1004060050909151935352929656579755959454AE
:100416009C5C5D9D5F9F9E5E5A9A9B5B995958981E
:10042600884849894B8B8A4A4E8E8F4F8D4D4C8C0E
:10043600448485458747468682424383418180407E
:060BC0008B2B8A2C892D0D
:100BC60090037074FFF0A3F0ED1DAE0470011C4E8F
:100BD600604FAB2B052DE52DAA2C7002052C14F9C0
:100BE600120872FF900370E06FFF900372E4F0A3A7
:100BF600EFF0900372E0FAA3E0FB2446F58274025C
:100C06003AF583E493FF900371E06F900370F074FC
:100C1600462BF58274033AF583E493900371F080D2
:100C2600A7900370E090036EF0900371E090036F5D
:070C3600F07B017A03796EE7
:010C3D002294
:0408DA008E218F22BA
:1008DE00E4900231F0A3F0900374747EF0E521A34E
:1008EE00F0A3EFF0A3EDF0A3EAF0A3EBF0E526A35F
:1008FE00F0A3E527F0E4900231F0A3F0C3900232AA
:10090E00E09527900231E09526501E74742527F548
:10091E008274033526F583E4F0900232E004F07021
:10092E00DB900231E004F080D3E4900231F0A3F0CA
:10093E00E52724F6FFE52634FFFE900231E0FCA306
:10094E00E0FDC39FEC9E502AAB28AA29A92A8D82CE
:10095E008C8312088BFF747C2DF58274033CF58317
:10096E00EFF0900232E004F070C6900231E004F035
:10097E0080BE7B017A037974E52724FEFDE52634DB
:10098E00FFFC120BC078337C027D017E007F0212C9
:10099E00084C900233E0FF74722527F582740335FC
:1009AE0026F583EFF0900234E0FF74732527F5826D
:0E09BE0074033526F583EFF07B017A0379741C
:0109CC002208
:060446008B218A228923AC
:10044C00120872900240F090000112088BFFEFFE30
:10045C0090000212088BFD3395E04EFFED900232B6
:10046C00CFF0A3EFF090000312088B900234F090C1
:10047C00000412088BFFEFFE90000512088BFD3371
:10048C0095E04EFFED900235CFF0A3EFF090000613
:10049C0012088BFFEFFE90000712088BFD3395E0DE
:1004AC004EFFED900237CFF0A3EFF0E4900241F055
:1004BC00900238E024F6FF900237E034FFFE900201
:1004CC0041E07C00D39FEC9E5028E0FF2408F5828D
:1004DC00E433F583AB21AA22A92312088BFE7442C4
:1004EC002FF582E43402F583EEF0900241E004F043
:1004FC0080BE9002397401F0A37402F0A37442F030
:10050C00AB21AA22A923900238E024FEFD900237E9
:10051C00E034FFFC8D82F58312088B90023FF09043
:10052C000238E024FFFF900237E034FF8F82F5831E
:10053C0012088B90023EF0120BC0783C7C027D01BD
:10054C007E007F0212084CE4900241F0900241E0E0
:10055C00FF900237E0FCA3E0FDC39FEC9400401B2E
:10056C00AB21AA22A923900241E0F582758300E415
:10057C001208B8900241E004F080D1900240E0648F
:10058C007E60099002317401F0FB807D900232E0B4
:10059C00F47004A3E06460600A9002317402F07B92
:1005AC00018066900234E0600A9002317403F07BA3
:1005BC00018056D3ED942CEC940140047F01800211
:1005CC007F00C3ED940AEC940050047E0180027EFF
:1005DC0000EE4F600A9002317404F07B01802A9087
:1005EC00023FE0FF90023CE0B5071690023EE0FFB0
:1005FC0090023DE0B5070A90023174FFF07B018058
:0D060C00089002317406F07B017A0279310A
:0106190022BE
:10000300759850438E40538EFE53890F758BCC7574
:090013008DFFC2ABD28ED2AC22EB
:10002600439A50438E0475D78F75D6FD438E9443FD
:03003600AF0122F5
:080039008F993099FDC2992254
:0A0DA3008B218A2289238C248D25E0
:100DAD00E4FDFCC3ED9525E5246480F8EC648098A2
:100DBD00501CAB210523E523AA227002052214F94C
:0E0DCD00120872FF1200390DBD00010C80D516
:010DDB0022F5
:0B0E24008F9BE59A30E1FB539AFD2202
:0A0DDC008B218A2289238C248D25A7
:100DE600E4FDFCC3ED9525E5246480F8EC64809869
:100DF600501CAB210523E523AA227002052214F913
:0E0E0600120872FF120E240DBD00010C80D5E3
:010E140022BB
:03000000020AB041
:0C0AB000787FE4F6D8FD758131020AF76A
:10077C00E709F608DFFA8046E709F208DFFA803E5F
:10078C0088828C83E709F0A3DFFA8032E309F6084C
:10079C00DFFA8078E309F208DFFA807088828C83B4
:1007AC00E309F0A3DFFA806489828A83E0A3F60868
:1007BC00DFFA805889828A83E0A3F208DFFA804C42
:1007CC0080D280FA80C680D4806980F28033801019
:1007DC0080A680EA809A80A880DA80E280CA803382
:1007EC0089828A83ECFAE493A3C8C582C8CCC583FA
:1007FC00CCF0A3C8C582C8CCC583CCDFE9DEE780CA
:10080C000D89828A83E493A3F608DFF9ECFAA9F048
:10081C00EDFB2289828A83ECFAE0A3C8C582C8CC9E
:10082C00C583CCF0A3C8C582C8CCC583CCDFEADEB7
:10083C00E880DB89828A83E493A3F208DFF980CC19
:10084C0088F0EF60010E4E60C388F0ED2402B40412
:10085C000050B9F582EB2402B4040050AF232345B9
:06086C0082239007CC730B
:10087200BB010689828A83E0225002E722BBFE0284
:09088200E32289828A83E49322B7
:10088B00BB010CE58229F582E5833AF583E0225022
:10089B0006E92582F8E622BBFE06E92582F8E2226C
:0D08AB00E58229F582E5833AF583E4932286
:1008B800F8BB010DE58229F582E5833AF583E8F076
:1008C800225006E92582C8F622BBFE05E92582C822
:0208D800F2220A
:100ABC0002061AE493A3F8E493A34003F68001F230
:100ACC0008DFF48029E493A3F85407240CC8C3333B
:100ADC00C4540F4420C8834004F456800146F6DF0A
:100AEC00E4800B010204081020408090001CE47E7E
:100AFC00019360BCA3FF543F30E509541FFEE493FF
:100B0C00A360010ECF54C025E060A840B8E493A3C5
:100B1C00FAE493A3F8E493A3C8C582C8CAC583CAF0
:100B2C00F0A3C8C582C8CAC583CADFE9DEE780BEA8
:0100220000DD
:00000001FF
