:0B2117005561203D202566004F4B0065
:06004600C1894100000029
:101B2D00121FE143C110C2A41215522085F575266E
:101B3D00007527067B177A007D037F01121F9C7DA0
:101B4D00087C00122056C2A7300BFDD2A77B017A6C
:101B5D0001792D121A4A782C7C027D017E007F05B9
:101B6D0012072690022EE0FBA3E0FAA3E0F9120F74
:101B7D00449002951208067525FF752621752717C5
:101B8D00900295E0FCA3E0FDA3E0FEA3E0F52B8E13
:101B9D002A8D298C287B017A0279311208D57B0197
:101BAD007A0279317D087C0012201D3085FDC20B33
:101BBD00E4900000F07B01FAFDFC7FC8FE120003EB
:0B1BCD00D2A3D2A2D2A1D2A0021B30F2
:03002300021CFEBE
:101CFE00C0E0C083C082C0D075D000C004C005C093
:031D0E0006C00705
:101D1100309861C2A6C298E599B47E0B3009087566
:101D21000B00750C00C2097401250CF58274003595
:101D31000BF583E599F0E50C6407450B70189000ED
:101D410007E0FF3395E0EFFEA3E0FD3395E0FCEE05
:101D51004CF508EDF509E50924FFFFE50834FFFE20
:101D6100EFB50C06EEB50B02D20A050CE50C7002BC
:041D7100050BD2A6E6
:101D7500D007D006D005D004D0D0D082D083D0E013
:011D8500322B
:03004300021EEBAF
:0F1EEB00C0E0C083C082C0D075D000C006C00761
:101EFA00E59A30E039539AFE900000E0FF242DF570
:101F0A0082E43401F583E59BF0EFB4020690012FD9
:101F1A00E0F50AE50A2404FFE433FE900000E0B588
:0E1F2A000706E4B50602D20B900000E004F0BA
:0D1F3800D007D006D0D0D082D083D0E032C8
:0E20FB0000007F5C7E327DEEDDFEDEFCDFFA53
:0121090022B3
:10155200200A0302170A7B017A00790112138C78A0
:101562000D7C007D007E007F0B120726E50DF460E6
:10157200030216F2B2A5B5120BE511B4FF067B0603
:101582007D17805EE512B4010BE511B4FF067B0402
:101592007D23804EE512B4020BE511B4FF067B04F5
:1015A2007D29803EE512B4030BE511B4FF067B04EE
:1015B2007D31802EE512B4040BE511B4FF067B04E5
:1015C2007D39801EE512B4050BE511B4FF067B04DC
:1015D2007D41800EE512B40610E511B4FF0B7B03CA
:1015E2007D497C007F010216E9E512B4100DE51178
:1015F200B4FF08C28212208F021706E5126411702E
:1016020003E511F47003021706E51264127003E594
:1016120011F47003021706E51264137003E511F466
:101622007003021706E51264147003E511F47003E7
:10163200021706E51264157003E511F47003021730
:1016420006E51264167003E511F47003021706E54D
:101652001264177003E511F47003021706E512B461
:10166200180FE511B4FF0A7B067D177C007F02800C
:1016720076E512B4190FE511B4FF0A7B047D237CD1
:10168200007F028062E512B41A0FE511B4FF0A7BF3
:10169200047D297C007F02804EE512B41B0FE51108
:1016A200B4FF0A7B047D317C007F02803AE512B4EC
:1016B2001C0FE511B4FF0A7B047D397C007F028098
:1016C20026E512B41D0FE511B4FF0A7B047D417CAF
:1016D200007F028012E512B41E12E511B4FF0D7BE9
:1016E200037D497C007F02121D868018C2A18014EE
:1016F200E50DB40604C2A0800BE50DB40204C2A33A
:091702008002C2A2D209C20A222F
:101D8600AE03AB05AA04EEFD3395E0F5268D277D5F
:101D960003121F9C7D087C00122056300BFD7B0130
:101DA6007A01792D121A4A782C7C027D017E007FF9
:101DB60005120726E4FF1200597F011200597F170A
:101DC60012005990022CE0240AF528E433F52790F6
:101DD600022EE0FBA3E0FAA3E08B298A2AF52B7BEF
:101DE600037AFF7D017F607EFF12195790022CE077
:101DF600240AFDE433FC12201DC20BE4900000F01F
:011E060022B9
:10208F00E4FF1200597F011200597F171200597592
:10209F00270075280C7529FF752A21752B1F7B10BA
:1020AF007AFF7D017F607EFF1219577D0C7C000245
:0220BF00201DE2
:101FE1007596FFE4F5957594FFF59375B4FFF5B318
:101FF10075C10643C1201200261220E812210AD21F
:10200100AFD282D2A4E5C130E705C2A353C17F7B21
:0C201100017A00E4FDFC7FC8FE02000321
:100CE80000C1814001C0804101C0804100C18140F4
:100CF80001C0804100C1814000C1814001C08041E4
:100D080001C0804100C1814000C1814001C08041D3
:100D180000C1814001C0804101C0804100C18140C3
:100D280001C0804100C1814000C1814001C08041B3
:100D380000C1814001C0804101C0804100C18140A3
:100D480000C1814001C0804101C0804100C1814093
:100D580001C0804100C1814000C1814001C0804183
:100D680001C0804100C1814000C1814001C0804173
:100D780000C1814001C0804101C0804100C1814063
:100D880000C1814001C0804101C0804100C1814053
:100D980001C0804100C1814000C1814001C0804143
:100DA80000C1814001C0804101C0804100C1814033
:100DB80001C0804100C1814000C1814001C0804123
:100DC80001C0804100C1814000C1814001C0804113
:100DD80000C1814001C0804101C0804100C1814003
:100DE80000C0C101C30302C2C60607C705C5C404C3
:100DF800CC0C0DCD0FCFCE0E0ACACB0BC90908C833
:100E0800D81819D91BDBDA1A1EDEDF1FDD1D1CDC22
:100E180014D4D515D71716D6D21213D311D1D01092
:100E2800F03031F133F3F23236F6F737F53534F482
:100E38003CFCFD3DFF3F3EFEFA3A3BFB39F9F838F2
:100E480028E8E929EB2B2AEAEE2E2FEF2DEDEC2CE2
:100E5800E42425E527E7E62622E2E323E12120E052
:100E6800A06061A163A3A26266A6A767A56564A442
:100E78006CACAD6DAF6F6EAEAA6A6BAB69A9A868B2
:100E880078B8B979BB7B7ABABE7E7FBF7DBDBC7CA2
:100E9800B47475B577B7B67672B2B373B17170B012
:100EA8005090915193535292965657975595945402
:100EB8009C5C5D9D5F9F9E5E5A9A9B5B9959589872
:100EC800884849894B8B8A4A4E8E8F4F8D4D4C8C62
:100ED80044848545874746868242438341818040D2
:100EE8003F0000003E8000003E0000003D80000002
:100EF8003D0000003C8000003C0002193B7FFBCE17
:100F08003AFFFBCE3A800EAE39FFDA40397FDA403D
:100F180038FFDA40387FDA40380205FF377BA8828D
:100F2800370637BD368637BD360637BD358637BDF9
:0C0F3800000000000000000000000000AD
:0A1F45008B2C8A2D892E8C2F8D30F5
:101F4F007FFF7EFFE5301530AC2F7002152F4C60F0
:101F5F0031AB2C052EE52EAA2D7002052D14F9128A
:101F6F00074C6FFD7C0024E8F582EC340CF583E41C
:101F7F00936EFF74E82DF582EC340DF583E493FE38
:0C1F8F0080C28F318E327B007A007931E5
:011F9B002223
:101F9C009002A1EFF0A3EDF0EAFFA3EFF0A3EBF0BA
:101FAC00E526FFA3EFF0A3E527F07B017A0279A1E8
:101FBC007D067C00121F4578287C007D007E007F0A
:101FCC00021207269002A7E528F0A3E529F07B0171
:041FDC007A0279A16B
:011FE00022DE
:061A4A008B228A2389248F
:101A5000E4FFFE900002120765F525D3EF9525748B
:101A600080F86E98501374102FF58274053EF5833C
:101A7000E4F00FBF00010E80E2E4FEFFC3EF952506
:101A80007480F86E985024AB22AA23A9248F828EEA
:101A900083A3A3A3120765FD74102FF58274053E7E
:101AA000F583EDF00FBF00010E80D1752701752879
:101AB00005752910AB22AA23A924E5252403FDE4FA
:101AC00033FC121F45782A7C007D007E007F0212C5
:101AD0000726E4FEFFD3EF95257480F86E98501525
:101AE000AB22AA23A9248F828E83E41207A40FBFFE
:101AF00000010E80E0AF2574042FF582E433F583F6
:101B0000AB22AA23A924120765B52A1774052FF55D
:101B100082E433F583120765B52B08B2EAE4F526B3
:0C1B2000FB80057526017B007A0079250A
:011B2C002296
:060F44008B228A238924A0
:100F4A00E49002A2F0A3F0A312081200000000121B
:100F5A00074CFF7807A2E713D8FB9002A2F0900093
:100F6A0001120765FE7807A2E713D8FBFEEF25E01A
:100F7A004E9002A3F0E02481F0E49002A1F0AB22AB
:100F8A00AA23A92490000312076530E04E9002A418
:100F9A00E0FCA3E0FDA3E0FEA3E0FFC004C005C09F
:100FAA0006C0079002A1E0FF3395E0FEC374169FC6
:100FBA00FFE49EFEEF7802C333CE33CED8F924E89D
:100FCA00F582740E3EF5831207F6D007D006D005D7
:100FDA00D00412006D9002A4120806AB22E5242464
:100FEA0003F9E43523FA12074CA2E7131207929089
:100FFA0002A1E004F0E064087084E49002A1F0AB7E
:10100A0022AA23A92490000212076530E04E90021A
:10101A00A4E0FCA3E0FDA3E0FEA3E0FFC004C0053A
:10102A00C006C0079002A1E0FF3395E0FEC3740E2C
:10103A009FFFE49EFEEF7802C333CE33CED8F92465
:10104A00E8F582740E3EF5831207F6D007D006D073
:10105A0005D00412006D9002A4120806AB22E52402
:10106A002402F9E43523FA12074CA2E71312079275
:10107A009002A1E004F0E064087084E49002A1F018
:10108A00AB22AA23A92490000112076530E04E90F2
:10109A0002A4E0FCA3E0FDA3E0FEA3E0FFC004C0BD
:1010AA0005C006C0079002A1E0FF3395E0FEC374B5
:1010BA00069FFFE49EFEEF7802C333CE33CED8F903
:1010CA0024E8F582740E3EF5831207F6D007D0069F
:1010DA00D005D00412006D9002A4120806AB22E5D6
:1010EA00242401F9E43523FA12074CFFA2E713126C
:1010FA0007929002A1E004F0E0640770839002A3D3
:10110A00E0FCE412026E8F2C8E2B8D2A8C297F0034
:10111A007E007D007C40121840C004C005C006C095
:10112A0007E4FFFE7D807C3F9002A4E0F8A3E0F98B
:10113A00A3E0FAA3E0FB12006DD003D002D001D0E5
:10114A000012015EC004C005C006C0079002A2E0FA
:10115A00FF7E007CFF7DFF1207C6AC06AD07E412D6
:10116A000269D003D002D001D00012006D9002A80B
:10117A001208069002A8E0FCA3E0FDA3E0FEA3E0AB
:01118A00FF65
:01118B002241
:10118C0000C1814001C0804101C0804100C181404B
:10119C0001C0804100C1814000C1814001C080413B
:1011AC0001C0804100C1814000C1814001C080412B
:1011BC0000C1814001C0804101C0804100C181401B
:1011CC0001C0804100C1814000C1814001C080410B
:1011DC0000C1814001C0804101C0804100C18140FB
:1011EC0000C1814001C0804101C0804100C18140EB
:1011FC0001C0804100C1814000C1814001C08041DB
:10120C0001C0804100C1814000C1814001C08041CA
:10121C0000C1814001C0804101C0804100C18140BA
:10122C0000C1814001C0804101C0804100C18140AA
:10123C0001C0804100C1814000C1814001C080419A
:10124C0000C1814001C0804101C0804100C181408A
:10125C0001C0804100C1814000C1814001C080417A
:10126C0001C0804100C1814000C1814001C080416A
:10127C0000C1814001C0804101C0804100C181405A
:10128C0000C0C101C30302C2C60607C705C5C4041A
:10129C00CC0C0DCD0FCFCE0E0ACACB0BC90908C88A
:1012AC00D81819D91BDBDA1A1EDEDF1FDD1D1CDC7A
:1012BC0014D4D515D71716D6D21213D311D1D010EA
:1012CC00F03031F133F3F23236F6F737F53534F4DA
:1012DC003CFCFD3DFF3F3EFEFA3A3BFB39F9F8384A
:1012EC0028E8E929EB2B2AEAEE2E2FEF2DEDEC2C3A
:1012FC00E42425E527E7E62622E2E323E12120E0AA
:10130C00A06061A163A3A26266A6A767A56564A499
:10131C006CACAD6DAF6F6EAEAA6A6BAB69A9A86809
:10132C0078B8B979BB7B7ABABE7E7FBF7DBDBC7CF9
:10133C00B47475B577B7B67672B2B373B17170B069
:10134C005090915193535292965657975595945459
:10135C009C5C5D9D5F9F9E5E5A9A9B5B99595898C9
:10136C00884849894B8B8A4A4E8E8F4F8D4D4C8CB9
:10137C004484854587474686824243834181804029
:061E07008B2C8A2D892EB0
:101E0D009003E074FFF0A3F0ED1DAE0470011C4EC5
:101E1D00604FAB2C052EE52EAA2D7002052D14F961
:101E2D0012074CFF9003E0E06FFF9003E2E4F0A394
:101E3D00EFF09003E2E0FAA3E0FB248CF58274113D
:101E4D003AF583E493FF9003E1E06F9003E0F074C3
:101E5D008C2BF58274123AF583E4939003E1F080B4
:101E6D00A79003E0E09003DEF09003E1E09003DF44
:071E7D00F07B017A0379DE1E
:011E8400223B
:041957008E228F232A
:10195B00E49002A1F0A3F09003E4747EF0E522A3DF
:10196B00F0A3EFF0A3EDF0A3EAF0A3EBF0E527A3D0
:10197B00F0A3E528F0E49002A1F0A3F0C39002A23B
:10198B00E095289002A1E09527501E74E42528F5D8
:10199B008274033527F583E4F09002A2E004F07023
:1019AB00DB9002A1E004F080D3E49002A1F0A3F05D
:1019BB00E52824F6FFE52734FFFE9002A1E0FCA307
:1019CB00E0FDC39FEC9E502AAB29AA2AA92B8D823E
:1019DB008C83120765FF74EC2DF58274033CF58341
:1019EB00EFF09002A2E004F070C69002A1E004F0C8
:1019FB0080BE7B017A0379E4E52824FEFDE52734DC
:101A0B00FFFC121E0778A37C027D017E007F021271
:101A1B0007269002A3E0FF74E22528F582740335B4
:101A2B0027F583EFF09002A4E0FF74E32528F582FD
:0E1A3B0074033527F583EFF07B017A0379E41D
:011A4900227A
:06138C008B228A23892454
:1013920012074C9002B0F0900001120765FFEFFEB9
:1013A200900002120765FD3395E04EFFED9002A218
:1013B200CFF0A3EFF09000031207659002A4F09023
:1013C2000004120765FFEFFE900005120765FD336A
:1013D20095E04EFFED9002A5CFF0A3EFF09000064E
:1013E200120765FFEFFE900007120765FD3395E0D7
:1013F2004EFFED9002A7CFF0A3EFF0E49002B1F020
:101402009002A8E024F6FF9002A7E034FFFE9002CB
:10141200B1E07C00D39FEC9E5028E0FF2408F582C7
:10142200E433F583AB22AA23A924120765FE74B222
:101432002FF582E43402F583EEF09002B1E004F07D
:1014420080BE9002A97401F0A37402F0A374B2F0FA
:10145200AB22AA23A9249002A8E024FEFD9002A7B1
:10146200E034FFFC8D82F5831207659002AFF090A5
:1014720002A8E024FFFF9002A7E034FF8F82F583E9
:101482001207659002AEF0121E0778AC7C027D0155
:101492007E007F02120726E49002B1F09002B1E0D2
:1014A200FF9002A7E0FCA3E0FDC39FEC9400401B69
:1014B200AB22AA23A9249002B1E0F582758300E44D
:1014C2001207A49002B1E004F080D19002B0E0646F
:1014D2007E60099002A17401F0FB806F9002A2E08D
:1014E200F47004A3E06460600A9002A17402F07BCD
:1014F2000180589002A4E06401600A9002A1740382
:10150200F07B018046C3ED940AEC94004009D3EDD0
:10151200942CEC9401400A9002A17404F07B0180A7
:101522002A9002AFE0FF9002ACE0B507169002AE3F
:10153200E0FF9002ADE0B5070A9002A174FFF07BD4
:0F1542000180089002A17406F07B017A0279A162
:011551002277
:10002600759850438E40538EFE53890F758BCC7551
:090036008DFFC2ABD28ED2AC22C8
:1020E800439A50438E0475D78F75D6FD438E94431B
:0320F800AF012213
:080059008F993099FDC2992234
:0A201D008B228A2389248C258D264E
:10202700E4FDFCC3ED9526E5256480F8EC64809813
:10203700501CAB220524E524AA237002052314F9BA
:0E20470012074CFF1200590DBD00010C80D590
:012055002268
:0B2122008F9BE59A30E1FB539AFD22F1
:0A2056008B228A2389248C258D2615
:10206000E4FDFCC3ED9526E5256480F8EC648098DA
:10207000501CAB220524E524AA237002052314F981
:0E20800012074CFF1221220DBD00010C80D56D
:01208E00222F
:0C004C00024600000240000002440000D8
:0D210A00438E0475D74075D6A2438E102277
:1000030043AF04EF2DF53FEE3CF53E8E428F43EBBD
:0A00130024FFF541EA34FFF5402216
:03006300021E85F5
:101E8500C0E0C0D075D000C0000547E54770020529
:101E950046C39543E54695425004C2C58002D2C566
:101EA500D3E547953FE546953E4034754600754771
:101EB50000D3E5419545E5446480F8E540648098A4
:101EC5005015E541F47003E540F4600B53AFFB7525
:101ED500440075450080080545E54570020544D078
:061EE50000D0D0D0E03275
:100066000202D7E86480F8E933E83360110460F0EF
:10007600ED33EC337009E8FCE9FDEAFEEBFF220400
:1000860060DED3EB9FEA9EE99DE8C2E78CF0C2F7FB
:1000960095F0400CE8CCF8E9CDF9EACEFAEBCFFBC7
:1000A6001202A285D0F05804700320D5B3E804707C
:1000B600075002B2D50202E192D5EC0460F7E4CC17
:1000C600C0E0C398F8603B94186008400DD0E0FB90
:1000D6000202B9E4FBFAC9FC8028E830E406E4C968
:1000E600FBE4CAFCE830E305E4C9CACBFCE85407E4
:1000F6006010F8C3E913F9EA13FAEB13FBEC13FCEF
:10010600D8F130F52FC3E49CFCEF9BFFEE9AFEED91
:1001160099FDD0E0FBEF4E4D4C701222DB0302023C
:10012600DEEC2CFCEF33FFEE33FEED33FDED30E776
:10013600EB0202B9EF2BFFEE3AFEED39FDD0E0FB04
:1001460050130BBB00030202E1ED13FDEE13FEEFAD
:0801560013FFEC13FC0202B9D7
:10015E00EC4D6011E8497017ED33EC3304600DE49B
:10016E00FCFFFEFD22E933E8330470F80202D712D9
:10017E0002A258046009E4CC2481500628500902DA
:10018E0002E12840030202DEC0E0EB4A7044B9806F
:10019E0006D0E0FB0202CDEF4E701CBD8008EBFFD7
:1001AE00EAFEE9FD80EBE98DF0A4FEE5F0020247E0
:1001BE00E9CDF9EAFEEBFFEF89F0A4FCE5F0CE897C
:1001CE00F0A42EFFE435F0CD89F0A42DFEE435F039
:1001DE008067EF4E7005BD80D780C3EF8BF0A4AC67
:1001EE00F0EE8BF0A42CFCE435F0F8EF8AF0A42CA2
:1001FE00E5F038FCE433CB8DF0A42CFCE5F03BF8B5
:10020E00EE8AF0A42CFCE5F038F8E433CF89F0A4A4
:10021E002CFCE5F038CF3400CE89F0A42FFFE5F0AA
:10022E003EFEE433C98DF0A42EFEE5F039CD8AF002
:10023E00A42FFFE5F03EFEE43DFD33D0E0FB50077A
:10024E000BBB000F0202E1EC2CFCEF33FFEE33FE92
:06025E00ED33FD0202B9C0
:1002640075F020800E75F010800575F0087D007E15
:10027400007F003392D530D5031207D8EC334010F9
:10028400EF33FFEE33FEED33FDEC33FCD5F0ED221E
:0E029400E5F0247EA2D513CC92E7CDCEFF225A
:10087900E5392425F8E6053922782230070278255A
:10088900E475F00112084302074C2000EB7F2ED2D9
:10089900008018EF540F2490D43440D4FF30040B57
:1008A900EF24BFB41A0050032461FFE53A60021532
:1008B9003A053DE53D7002053C30070D7822E475A7
:1008C900F001120843EF0207920220C17403D20714
:1008D9008003E4C207F5398B228A238924E4F53A97
:1008E900F53CF53DE53A60077F201208B480F575BF
:1008F9003BFFC201C200C202C203C205C206C2084E
:10090900120882FF700D3007057F001208C5AF3D40
:10091900AE3C22B4255FC2D5C204120882FF24D09E
:10092900B40A00501A75F00A783A30D50508B6FFAE
:100939000106C6A426F620D5047002D20380D92464
:10094900CFB41A00EF5004C2E5D204020BB2D201AF
:1009590080C6D20080C0D20280BCD2D580BAD2056E
:1009690080B47F201208B42002077401B53A004010
:10097900F1120879FF1208B40208EDD208D20680F4
:1009890095120879FB120879FA120879F94A4B701D
:100999000679A97A0C7BFF20022EE53A602A7E00AF
:1009A9008E8275830012076560060EEE653B70F056
:1009B900C2D5EBC0E0EAC0E0E9C0E0EE120C12D00B
:1009C900E0F9D0E0FAD0E0FB12074CFF60AAEBC0D7
:1009D900E0EAC0E0E9C0E01208B4D0E02401F9D0AF
:1009E900E03400FAD0E0FBE53B0460DCD53BD9807C
:1009F90087D20280A2120BF560F7E53B7001041261
:100A090003C7A93B600DE53B600914F53B120C9C3B
:100A1900EF60F3EA30E702F404C3995077EAF4256A
:100A29003B0430E701E404F53B800D120BF560C18E
:100A3900EA053B253B1203C7EA7838F630E701E4BB
:100A4900253B04D53B0420050114120C12E4C0E037
:100A5900120C9C7838E6601320E70714F612089CFC
:100A6900802204F6D0E014C0E07F0012089CE53B28
:100A79006007120893153B800B300503120893D0C9
:100A8900E00208EDD0E00480C5120BF560A0E53B5B
:100A9900041203C77838EAF6E53B20050260010431
:050AA9002404120C12F0
:100AAE0074FF04C0E0120C9C12089CE53B2005026A
:100ABE006003120893D0E0B53BE87F451208A67894
:100ACE0038E67F2B30E7047F2DF404C0E01208B423
:100ADE00D0E075F00A84C0F012089DD0E012089D97
:100AEE000208ED791080027908C206C2088008D289
:100AFE00D5790A8004790AC2D5E53B047002F53B2C
:100B0E00E4FAFDFEFF120879FC7B0820011312089F
:100B1E0079FD7B1030000A120879FE120879FF7BEE
:100B2E0020EC3382D592D55013C3E43000069FFFDC
:100B3E00E49EFEE42001039DFDE49CFCE4CBF8C2A0
:100B4E0001EC700CCFCECDCCE824F8F870F3801702
:100B5E00C3EF33FFEE33FEED33FDEC33FCEB33FB33
:100B6E00994002FB0FD8E9EB300105F8D0E0C448FC
:100B7E00B201C0E00AEC4D4E4F78207B0070C2EA05
:100B8E00B53B0040BCC0E0120C14D0F0D0E0200108
:100B9E0004C4C0E0C4B201C0F012089DD0F0D5F07C
:100BAE00EB0208ED120853098A530AF158095B4CFF
:100BBE000957420AF54F0AFD440AFD490970430BD5
:100BCE0003550A34460A924509FE470CC950095F7F
:100BDE002D09632E09862B0967230984200CB22A5E
:100BEE00091F480000097EE53BB4FF03753B061262
:100BFE000879FC120879FD120879FE120879FF783F
:100C0E00310203F6790AA2D5200314300509B91072
:100C1E00020404B9080104A2D520060250010420E2
:100C2E0002689202B53A005034C0E07F20300319BA
:100C3E007F30A20272067205500F120C6BC202C2F6
:100C4E0006C205C2087F30800F300503E9C0E012EE
:100C5E0008B4300503D0E0F9D0E0B53ACC30051732
:100C6E007F30B9100C1208B47F583004077F78809B
:100C7E0003B908031208B43002057F2D0208B47FB1
:100C8E00202008F87F2B2006F322920280CF7F00CF
:100C9E00B4070050052431F8E6FF22286E756C6CFF
:100CAE002900D2011208793001F8C201783A30D504
:100CBE000108F602091F2D504349581208792403E2
:100CCE00B405004001E4900CC4931208A5743A12C6
:0A0CDE0008A5D203753A04020AF1DA
:101840008F288E278D268C25E4FFFE7D807C3FAB84
:1018500028AA27A926A8251203067009AF28AE27B3
:10186000AD26AC2522AF28AE27AD26AC251202EC62
:10187000FBAF2CAE2BAD2AAC291202ECFFBF010846
:10188000E4FFFE7D807C3F22EF64046022EB640471
:10189000601DBB0127E4FFFEFDFCAB2CAA2BA92A8F
:1018A000A82912030660084006E4FFFEFDFC22742E
:1018B000FFF52CF52BF52AF52902194EE4F52DF547
:1018C0002EFFFEFDFCAB28AA27A926A82512030699
:1018D000504BAF2CAE2BAD2AAC291203908E2D8F1E
:1018E0002EAC2DAD2EEC120269C8ECC8C9EDC9CAE8
:1018F000EECACBEFCBAF2CAE2BAD2AAC29120069D0
:10190000E4FBFAF9F812030670A5AF28AE27AD265E
:10191000AC2512037F8F288E278D268C25AF28AE0D
:1019200027AD26AC2512173FAB2CAA2BA92AA82934
:1019300012015E121C108F2C8E2B8D2A8C29E52E05
:1019400030E00B12037F8F2C8E2B8D2A8C29AF2C2D
:07195000AE2BAD2AAC2922E9
:1002A200E9D2E7C933E833F892D5EDD2E7CD33ECA2
:0702B20033FC5002B2D5221B
:1002B900EC30E7100FBF000C0EBE00080DBD0004A6
:1002C9000BEB6014A2D5EB13FCED92E7FD2274FF52
:1002D900FCFDFEFF22E480F8A2D574FF13FC7D80AB
:0302E900E480EFBF
:1002EC00ED33EC33601004700FED547F7005740225
:0A02FC0092E0227404220422E4229E
:1003060074F8CC6480CCC86480C8F58204604FC39E
:10031600EB9FF5F0EA9E42F0E99D42F0E89C45F03D
:10032600603C501DE5825FFFE582D313CB5BCBF4C7
:100336002B5582FB50280ABA002409B900200880F0
:100346001DE5825BFBE582D313CF5FCFF4C3132F8A
:100356005582FF50090EBE00050DBD00010CC3EB12
:100366009FF5F0EA9E42F0E99D42F0E89C45F06078
:0903760007CC4820E701B3EC229A
:10037F00ED33EC33600A047003BD8004ECB2E7FC8C
:01038F00224B
:10039000EDD2E7CD33EC3392D524814006E4FFFE65
:1003A000FDFC22FCE4CFCECDCC24E0501174FF80C4
:1003B000EDC3CC13CCCD13CDCE13CECF13CF047061
:0703C000F030D5DE0207D882
:1003C700F920E72824F950037907E4F42402FB18FD
:1003D700DBFDE624FB5014E9600DE4F618E604F6AD
:0F03E700B40A08E4F6D9F57401F60A22C2D52249
:1003F600ED33EC3392D5FA602AB4FF33EDC2E77BD6
:10040600FF60067A04791BE4227A04792420D50455
:100416007A04791F224E614E002B494E46002D4923
:100426004E4600E47A08F608DAFC7B00740722E8F8
:10043600C0E0ECC0E0EDC0E0EEC0E0EFC0E0EA7581
:10044600F010A4CAABF075F04DA42BFBE435F0FC1C
:10045600EA2410FAEB34C5FBEC34D9FCEDC2E7FF15
:1004660075F056A4F42411C5F0F434C58FF0A42A0F
:10047600E5F03BE43CF620E7141205C9D0E0FFD0D6
:10048600E0FED0E0FDD0E0FC1204FC8014F404127F
:1004960005C9D0E0FFD0E0FED0E0FDD0E0FC1201BF
:1004A6005ED0E0F8E6FAEDD2E7CD33EC332482FBFA
:1004B600E4C3CF33CFCE33CECD33CD33DBF37B079F
:1004C60075F00A846004F6081B0AE5F0F6088FF05A
:1004D600740AA4FFACF08EF0740AA42CFEACF050A3
:1004E600010C8DF0740AA42CFDE435F0F608DBDE71
:0304F60074072266
:101BD80033DA929E35B16011377FE5FE3921848969
:101BE8003AAEC3FF3C1D955B3D6358473E75FDF01B
:101BF8003F3172183F800000C2D50202E10202D7CD
:101C0800BD80FA50F30202DEED33EC330460F17B61
:101C18003B7AAA79B8783F12015EED33EC3392D55E
:101C2800247B5011A2D570DB500BED448024045066
:101C380004A2D580CEEFFBEEFAEDF9ECF812039092
:101C4800EFF582F404FC12026E12006DC082901B44
:101C5800D87409120618ED33CC33D0F092D525F09C
:0A1C6800A2D57001C313CC13FD22B6
:10170B003E9248DA3ECCCCCD3F2AAAAB400000003B
:10171B003F8000003F9837F03FB504F33FD744FCC0
:10172B003E3172173EB172173F0515913EDE5BD904
:10173B00D2008002C200EDD2E7F8CD33EC33047057
:10174B000BBD800592D50202E10202D740FBD314F8
:10175B0060F2F5F07C3FEE7A00C39496C8948B4010
:10176B00230AC89469C8941A401A0AC89468C89482
:10177B001F40110AC8945AC89425400805F07A00F6
:10178B00CDC2E7CDC0F08C2F8D308E318F32EA2356
:10179B0023C0E0241BF582E43417F5831207F612FD
:1017AB00006DECC0E0EDC0E0EEC0E0EFC0E0120772
:1017BB00E6A82FA930AA31AB32120069D0E0FBD0DA
:1017CB00E0FAD0E0F9D0E0B2E7F81204FC8C2F8DF0
:1017DB00308E318F3290170B7403120609A82FA984
:1017EB0030AA31AB3212015ED0E0600F2427F582B4
:1017FB00E43417F5831207F612006D8C2F8D308EA3
:10180B00318F32D0E0C3947FFDE49400FC12026967
:10181B007B187A727931783F12015EA82FA930AA12
:10182B0031AB3212006D30000B7BD97A5B79DE78ED
:05183B003E12015E22D7
:1004F9000202E1EC5D046005E8590470030202D7C9
:100509001202A2580460F6EC4860F2EC7004FDFE99
:10051900FF22C860DB2481C85009C39860025006D5
:100529000202DE9850CAF582E9294B4A7005AB826E
:100539000202CD75F0007C1A7880C3EF9BEE9AED2C
:1005490099400DC3EF9BFFEE9AFEED99FDE842F04D
:10055900DC23ACF0D0E0FFD0E0FED0E0FDAB8220A0
:10056900E7101BEB60BAEC2CFCEF33FFEE33FEED2A
:1005790033FD0202B9E803F830E705C0F075F00071
:10058900EF2FFFEE33FEED33FD40B830E7C280AA0E
:100599003F8000004120000042C80000447A00006A
:1005A900461C400047C35000497424004B189680EC
:1005B9004CBEBC205A0E1BCA6753C21C749DC5AEE3
:1005C900FB60065407601C23231205F7EB543860BF
:1005D900091205E31205F212015EECF8EDF9EEFAE3
:1005E900EFCB22EB1205F280F1543803241C90055D
:1005F90099FE93FC0EEE93FD0EEE930ECE93FF2221
:10060900C0E0EFFBEEFAEDF9ECF812015ED0E0F58F
:10061900F0EFFBEEFAEDF9ECF81207E6A3A3A3A3BA
:10062900E8C0E0E9C0E0EAC0E0EBC0E0C0F01201D8
:100639005E1207F6A3A3A3A312006DD0F0D0E0FBCE
:0D064900D0E0FAD0E0F9D0E0F8D5F0D422EE
:03000000021C726D
:0C1C7200787FE4F6D8FD758147021CB9AC
:10065600E709F608DFFA8046E709F208DFFA803E86
:1006660088828C83E709F0A3DFFA8032E309F60873
:10067600DFFA8078E309F208DFFA807088828C83DB
:10068600E309F0A3DFFA806489828A83E0A3F6088F
:10069600DFFA805889828A83E0A3F208DFFA804C69
:1006A60080D280FA80C680D4806980F28033801040
:1006B60080A680EA809A80A880DA80E280CA8033A9
:1006C60089828A83ECFAE493A3C8C582C8CCC58321
:1006D600CCF0A3C8C582C8CCC583CCDFE9DEE780F1
:1006E6000D89828A83E493A3F608DFF9ECFAA9F070
:1006F600EDFB2289828A83ECFAE0A3C8C582C8CCC6
:10070600C583CCF0A3C8C582C8CCC583CCDFEADEDE
:10071600E880DB89828A83E493A3F208DFF980CC40
:1007260088F0EF60010E4E60C388F0ED2402B40439
:100736000050B9F582EB2402B4040050AF232345E0
:0607460082239006A67359
:10074C00BB010689828A83E0225002E722BBFE02AB
:09075C00E32289828A83E49322DE
:10076500BB010CE58229F582E5833AF583E0225049
:1007750006E92582F8E622BBFE06E92582F8E22293
:0D078500E58229F582E5833AF583E49322AD
:10079200BB010689828A83F0225002F722BBFE0146
:0207A200F32240
:1007A400F8BB010DE58229F582E5833AF583E8F08B
:1007B400225006E92582C8F622BBFE05E92582C837
:0207C400F2221F
:1007C600EF8DF0A4A8F0CF8CF0A428CE8DF0A42E47
:0207D600FE2201
:0E07D800C3E49FFFE49EFEE49DFDE49CFC2232
:1007E600E493FC740193FD740293FE740393FF2259
:1007F600E493F8740193F9740293FA740393FB2259
:0C080600ECF0A3EDF0A3EEF0A3EFF02265
:10081200A8828583F0D083D0821208291208291277
:100822000829120829E473E493A3C583C5F0C5839C
:10083200C8C582C8F0A3C583C5F0C583C8C582C830
:010842002293
:10084300FAE6FB0808E6F925F0F618E6CA3AF622B6
:10085300D083D082F8E4937012740193700DA3A334
:1008630093F8740193F5828883E473740293686048
:06087300EFA3A3A380DF48
:1020C100EFB40A07740D1220CC740A309811A89944
:1020D100B8130CC2983098FDA899C298B811F6307F
:0720E10099FDC299F5992257
:101C7E00021B2DE493A3F8E493A34003F68001F234
:101C8E0008DFF48029E493A3F85407240CC8C33367
:101C9E00C4540F4420C8834004F456800146F6DF36
:101CAE00E4800B0102040810204080900046E47E80
:101CBE00019360BCA3FF543F30E509541FFEE4932B
:101CCE00A360010ECF54C025E060A840B8E493A3F2
:101CDE00FAE493A3F8E493A3C8C582C8CAC583CA1D
:101CEE00F0A3C8C582C8CAC583CADFE9DEE780BED5
:0100580000A7
:00000001FF
