:06001C00C180410000005C
:100AB000120003120026D2AF7596FFE4F5951206D8
:100AC0001D30FB03020B4F750C00750D067B177A6A
:100AD000007D037F01120E1F7D087C00120E9DC257
:100AE000EE3002FDD2EE7B017A01792D1209CD782C
:100AF0002C7C027D017E007F0512084CE4FF120071
:100B0000397F011200397F1712003990022CE0243E
:100B10000AF50EE433F50D90022EE0FBA3E0FAA3F4
:100B2000E08B0F8A10F5117B037AFF7D017F607ED9
:100B3000FF1208DA90022CE0240AFDE433FC120EC6
:100B400064C2EF30FBFDD2EFC202E4900000F0205F
:0C0B5000F805C2A4020ABED2A4020ABE2C
:03002300020BE8E5
:100BE800C0E0C083C082C0D075D000C004C005C0BA
:030BF80006C0072D
:100BFB0030985DC298E599B47E0B300008752400DF
:100C0B00752500C20074012525F58274003524F585
:100C1B0083E599F0E525640745247018900007E0FB
:100C2B00FF3395E0EFFEA3E0FD3395E0FCEE4CF5D2
:100C3B0021EDF522E52224FFFFE52134FFFEEFB580
:100C4B002506EEB52402D2010525E5257002052403
:100C5B00D007D006D005D004D0D0D082D083D0E03E
:010C6B003256
:03004300020D6E3D
:0F0D6E00C0E0C083C082C0D075D000C006C007EF
:100D7D00E59A30E039539AFE900000E0FF242DF5FE
:100D8D0082E43401F583E59BF0EFB4020690012F68
:100D9D00E0F523E5232404FFE433FE900000E0B5E5
:0E0DAD000706E4B50602D202900000E004F052
:0D0DBB00D007D006D0D0D082D083D0E03257
:0E0ED60000007F5C7E327DEEDDFEDEFCDFFA8A
:010EE40022EB
:10061D0020010302077B7B017A00790112044678E1
:10062D00267C007D007E007F0B12084CE526F460D1
:10063D0003020745B2E8B52B0BE52AB4FF067B068E
:10064D007D17805EE52BB4010BE52AB4FF067B0414
:10065D007D23804EE52BB4020BE52AB4FF067B0407
:10066D007D29803EE52BB4030BE52AB4FF067B0400
:10067D007D31802EE52BB4040BE52AB4FF067B04F7
:10068D007D39801EE52BB4050BE52AB4FF067B04EE
:10069D007D41800EE52BB40610E52AB4FF0B7B03DC
:1006AD007D497C007F01020740E52BB4180FE52A38
:1006BD00B4FF0A7B067D177C007F028076E52BB4A4
:1006CD00190FE52AB4FF0A7B047D237C007F02808D
:1006DD0062E52BB41A0FE52AB4FF0A7B047D297C51
:1006ED00007F02804EE52BB41B0FE52AB4FF0A7B79
:1006FD00047D317C007F02803AE52BB41C0FE52A86
:10070D00B4FF0A7B047D397C007F028026E52BB483
:10071D001D0FE52AB4FF0A7B047D417C007F02801A
:10072D0012E52B641E7003E52AF4703E7B037D49B0
:10073D00FC7F02120C6C8032B2EFE526B40207C2C8
:10074D00EA120ED6D2EAE526B40307C2EB120ED694
:10075D00D2EBE526B40407C2EC120ED6D2ECE52698
:0F076D00B40607C2ED120ED6D2EDD200C20122A1
:100C6C00AE03AB05AA04EEFD3395E0F50C8D0D7DBE
:100C7C0003120E1F7D087C00120E9D3002FD7B01BD
:100C8C007A01792D1209CD782C7C027D017E007FB2
:100C9C000512084CE4FF1200397F011200397F174E
:100CAC0012003990022CE0240AF50EE433F50D9075
:100CBC00022EE0FBA3E0FAA3E08B0F8A10F5117B68
:100CCC00037AFF7D017F607EFF1208DA90022CE030
:100CDC00240AFDE433FC120E643087FDC202E4905A
:040CEC000000F022F2
:1000460000C1814001C0804101C0804100C18140A2
:1000560001C0804100C1814000C1814001C0804192
:1000660001C0804100C1814000C1814001C0804182
:1000760000C1814001C0804101C0804100C1814072
:1000860001C0804100C1814000C1814001C0804162
:1000960000C1814001C0804101C0804100C1814052
:1000A60000C1814001C0804101C0804100C1814042
:1000B60001C0804100C1814000C1814001C0804132
:1000C60001C0804100C1814000C1814001C0804122
:1000D60000C1814001C0804101C0804100C1814012
:1000E60000C1814001C0804101C0804100C1814002
:1000F60001C0804100C1814000C1814001C08041F2
:1001060000C1814001C0804101C0804100C18140E1
:1001160001C0804100C1814000C1814001C08041D1
:1001260001C0804100C1814000C1814001C08041C1
:1001360000C1814001C0804101C0804100C18140B1
:1001460000C0C101C30302C2C60607C705C5C40471
:10015600CC0C0DCD0FCFCE0E0ACACB0BC90908C8E1
:10016600D81819D91BDBDA1A1EDEDF1FDD1D1CDCD1
:1001760014D4D515D71716D6D21213D311D1D01041
:10018600F03031F133F3F23236F6F737F53534F431
:100196003CFCFD3DFF3F3EFEFA3A3BFB39F9F838A1
:1001A60028E8E929EB2B2AEAEE2E2FEF2DEDEC2C91
:1001B600E42425E527E7E62622E2E323E12120E001
:1001C600A06061A163A3A26266A6A767A56564A4F1
:1001D6006CACAD6DAF6F6EAEAA6A6BAB69A9A86861
:1001E60078B8B979BB7B7ABABE7E7FBF7DBDBC7C51
:1001F600B47475B577B7B67672B2B373B17170B0C1
:1002060050909151935352929656579755959454B0
:100216009C5C5D9D5F9F9E5E5A9A9B5B9959589820
:10022600884849894B8B8A4A4E8E8F4F8D4D4C8C10
:100236004484854587474686824243834181804080
:0A0DC8008B128A1389148C158D1606
:100DD2007FFF7EFFE5161516AC15700215154C60E7
:100DE20031AB120514E514AA137002051314F9129B
:100DF20008726FFD7C002446F582EC3400F583E432
:100E0200936EFF74462DF582EC3401F583E493FE74
:0C0E120080C28F178E187B007A007917C1
:010E1E0022B1
:100E1F00900231EFF0A3EDF0EAFFA3EFF0A3EBF0B8
:100E2F00E50CFFA3EFF0A3E50DF07B017A0279311A
:100E3F007D067C00120DC8780E7C007D007E007F41
:100E4F000212084C900237E50EF0A3E50FF07B017C
:040E5F007A02793169
:010E6300226C
:0609CD008B088A09890A6B
:1009D300E4FFFE90000212088BF50BD3EF950B7426
:1009E30080F86E98501374A02FF58274043EF5833B
:1009F300E4F00FBF00010E80E2E4FEFFC3EF950BAE
:100A03007480F86E985024AB08AA09A90A8F828EC5
:100A130083A3A3A312088BFD74A02FF58274043E55
:100A2300F583EDF00FBF00010E80D1750D01750E3A
:100A330004750FA0AB08AA09A90AE50B2403FDE47A
:100A430033FC120DC878107C007D007E007F0212FB
:100A5300084CE4FEFFD3EF950B7480F86E985015A5
:100A6300AB08AA09A90A8F828E83E41208B80FBFC4
:100A730000010E80E0AF0B74042FF582E433F5839D
:100A8300AB08AA09A90A12088BB5101774052FF52C
:100A930082E433F58312088BB51108B2EAE4F50C4E
:0C0AA300FB8005750C017B007A00790BCC
:010AAF002224
:1002460000C1814001C0804101C0804100C18140A0
:1002560001C0804100C1814000C1814001C0804190
:1002660001C0804100C1814000C1814001C0804180
:1002760000C1814001C0804101C0804100C1814070
:1002860001C0804100C1814000C1814001C0804160
:1002960000C1814001C0804101C0804100C1814050
:1002A60000C1814001C0804101C0804100C1814040
:1002B60001C0804100C1814000C1814001C0804130
:1002C60001C0804100C1814000C1814001C0804120
:1002D60000C1814001C0804101C0804100C1814010
:1002E60000C1814001C0804101C0804100C1814000
:1002F60001C0804100C1814000C1814001C08041F0
:1003060000C1814001C0804101C0804100C18140DF
:1003160001C0804100C1814000C1814001C08041CF
:1003260001C0804100C1814000C1814001C08041BF
:1003360000C1814001C0804101C0804100C18140AF
:1003460000C0C101C30302C2C60607C705C5C4046F
:10035600CC0C0DCD0FCFCE0E0ACACB0BC90908C8DF
:10036600D81819D91BDBDA1A1EDEDF1FDD1D1CDCCF
:1003760014D4D515D71716D6D21213D311D1D0103F
:10038600F03031F133F3F23236F6F737F53534F42F
:100396003CFCFD3DFF3F3EFEFA3A3BFB39F9F8389F
:1003A60028E8E929EB2B2AEAEE2E2FEF2DEDEC2C8F
:1003B600E42425E527E7E62622E2E323E12120E0FF
:1003C600A06061A163A3A26266A6A767A56564A4EF
:1003D6006CACAD6DAF6F6EAEAA6A6BAB69A9A8685F
:1003E60078B8B979BB7B7ABABE7E7FBF7DBDBC7C4F
:1003F600B47475B577B7B67672B2B373B17170B0BF
:1004060050909151935352929656579755959454AE
:100416009C5C5D9D5F9F9E5E5A9A9B5B995958981E
:10042600884849894B8B8A4A4E8E8F4F8D4D4C8C0E
:10043600448485458747468682424383418180407E
:060CF0008B128A13891427
:100CF60090037074FFF0A3F0ED1DAE0470011C4E5E
:100D0600604FAB120514E514AA137002051314F90B
:100D1600120872FF900370E06FFF900372E4F0A375
:100D2600EFF0900372E0FAA3E0FB2446F58274022A
:100D36003AF583E493FF900371E06F900370F074CB
:100D4600462BF58274033AF583E493900371F080A1
:100D5600A7900370E090036EF0900371E090036F2C
:070D6600F07B017A03796EB6
:010D6D002263
:0408DA008E088F09EC
:1008DE00E4900231F0A3F0900374747EF0E508A367
:1008EE00F0A3EFF0A3EDF0A3EAF0A3EBF0E50DA378
:1008FE00F0A3E50EF0E4900231F0A3F0C3900232C3
:10090E00E0950E900231E0950D501E7474250EF593
:10091E00827403350DF583E4F0900232E004F0703A
:10092E00DB900231E004F080D3E4900231F0A3F0CA
:10093E00E50E24F6FFE50D34FFFE900231E0FCA338
:10094E00E0FDC39FEC9E502AAB0FAA10A9118D8219
:10095E008C8312088BFF747C2DF58274033CF58317
:10096E00EFF0900232E004F070C6900231E004F035
:10097E0080BE7B017A037974E50E24FEFDE50D340D
:10098E00FFFC120CF078337C027D017E007F021298
:10099E00084C900233E0FF7472250EF58274033515
:1009AE000DF583EFF0900234E0FF7473250EF5829F
:0E09BE007403350DF583EFF07B017A03797435
:0109CC002208
:060446008B088A09890AF7
:10044C00120872900240F090000112088BFFEFFE30
:10045C0090000212088BFD3395E04EFFED900232B6
:10046C00CFF0A3EFF090000312088B900234F090C1
:10047C00000412088BFFEFFE90000512088BFD3371
:10048C0095E04EFFED900235CFF0A3EFF090000613
:10049C0012088BFFEFFE90000712088BFD3395E0DE
:1004AC004EFFED900237CFF0A3EFF0E4900241F055
:1004BC00900238E024F6FF900237E034FFFE900201
:1004CC0041E07C00D39FEC9E5028E0FF2408F5828D
:1004DC00E433F583AB08AA09A90A12088BFE74420F
:1004EC002FF582E43402F583EEF0900241E004F043
:1004FC0080BE9002397401F0A37402F0A37442F030
:10050C00AB08AA09A90A900238E024FEFD90023734
:10051C00E034FFFC8D82F58312088B90023FF09043
:10052C000238E024FFFF900237E034FF8F82F5831E
:10053C0012088B90023EF0120CF0783C7C027D018C
:10054C007E007F0212084CE4900241F0900241E0E0
:10055C00FF900237E0FCA3E0FDC39FEC9400401B2E
:10056C00AB08AA09A90A900241E0F582758300E460
:10057C001208B8900241E004F080D1900240E0648F
:10058C007E600A9002317401F0FB02061890023270
:10059C00E0F47004A3E06460600A9002317402F02D
:1005AC007B018068900234E06401600A900231742F
:1005BC0003F07B018056D3ED942CEC940140047F26
:1005CC000180027F00C3ED940AEC940050047E017C
:1005DC0080027E00EE4F600A9002317404F07B01C1
:1005EC00802A90023FE0FF90023CE0B50716900293
:1005FC003EE0FF90023DE0B5070A90023174FFF037
:10060C007B0180089002317406F07B017A0279310B
:01061C0022BB
:10000300759850438E40538EFE53890F758BCC7574
:090013008DFFC2ABD28ED2AC22EB
:10002600439A50438E0475D78F75D6FD438E9443FD
:03003600AF0122F5
:080039008F993099FDC2992254
:0A0E64008B088A09890A8C0B8D0C9B
:100E6E00E4FDFCC3ED950CE50B6480F8EC64809812
:100E7E00501CAB08050AE50AAA097002050914F907
:0E0E8E00120872FF1200390DBD00010C80D554
:010E9C002233
:0B0EE5008F9BE59A30E1FB539AFD2241
:0A0E9D008B088A09890A8C0B8D0C62
:100EA700E4FDFCC3ED950CE50B6480F8EC648098D9
:100EB700501CAB08050AE50AAA097002050914F9CE
:0E0EC700120872FF120EE50DBD00010C80D561
:010ED50022FA
:03000000020B5C94
:0C0B5C00787FE4F6D8FD758130020BA311
:10077C00E709F608DFFA8046E709F208DFFA803E5F
:10078C0088828C83E709F0A3DFFA8032E309F6084C
:10079C00DFFA8078E309F208DFFA807088828C83B4
:1007AC00E309F0A3DFFA806489828A83E0A3F60868
:1007BC00DFFA805889828A83E0A3F208DFFA804C42
:1007CC0080D280FA80C680D4806980F28033801019
:1007DC0080A680EA809A80A880DA80E280CA803382
:1007EC0089828A83ECFAE493A3C8C582C8CCC583FA
:1007FC00CCF0A3C8C582C8CCC583CCDFE9DEE780CA
:10080C000D89828A83E493A3F608DFF9ECFAA9F048
:10081C00EDFB2289828A83ECFAE0A3C8C582C8CC9E
:10082C00C583CCF0A3C8C582C8CCC583CCDFEADEB7
:10083C00E880DB89828A83E493A3F208DFF980CC19
:10084C0088F0EF60010E4E60C388F0ED2402B40412
:10085C000050B9F582EB2402B4040050AF232345B9
:06086C0082239007CC730B
:10087200BB010689828A83E0225002E722BBFE0284
:09088200E32289828A83E49322B7
:10088B00BB010CE58229F582E5833AF583E0225022
:10089B0006E92582F8E622BBFE06E92582F8E2226C
:0D08AB00E58229F582E5833AF583E4932286
:1008B800F8BB010DE58229F582E5833AF583E8F076
:1008C800225006E92582C8F622BBFE05E92582C822
:0208D800F2220A
:100B6800020AB0E493A3F8E493A34003F68001F2E9
:100B780008DFF48029E493A3F85407240CC8C3338E
:100B8800C4540F4420C8834004F456800146F6DF5D
:100B9800E4800B010204081020408090001CE47ED1
:100BA800019360BCA3FF543F30E509541FFEE49352
:100BB800A360010ECF54C025E060A840B8E493A319
:100BC800FAE493A3F8E493A3C8C582C8CAC583CA44
:100BD800F0A3C8C582C8CAC583CADFE9DEE780BEFC
:0100220000DD
:00000001FF
